{
  "transactions": [
    {
      "hash": "0x7a6361a7ab20fbccaac63a2d87e508282c6744e5fb1b7d3bdf2a733b78996742",
      "transactionType": "CALL",
      "contractName": null,
      "contractAddress": "0xf969aee60879c54baaed9f3ed26147db216fd664",
      "function": "initializePool((address,address,uint24,int24,address),uint160)",
      "arguments": [
        "(0xdEDeBDB00a83a0bD09b414Ea5FD876dB40799529, 0xEEe28Afd5077a0Add3D1C59f85B8eaEE49816127, 3000, 60, 0xdA257AfcB7a3025690bf3B48ED9A0378FdE650C0)",
        "79228162514264337593543950336"
      ],
      "transaction": {
        "from": "0xa4280dd3f9e1f6bf1778837ac12447615e1d0317",
        "to": "0xf969aee60879c54baaed9f3ed26147db216fd664",
        "value": "0x0",
        "input": "0xf7020405000000000000000000000000dedebdb00a83a0bd09b414ea5fd876db40799529000000000000000000000000eee28afd5077a0add3d1c59f85b8eaee498161270000000000000000000000000000000000000000000000000000000000000bb8000000000000000000000000000000000000000000000000000000000000003c000000000000000000000000da257afcb7a3025690bf3b48ed9a0378fde650c00000000000000000000000000000000000000001000000000000000000000000",
        "nonce": "0x9",
        "chainId": "0x515"
      },
      "additionalContracts": [],
      "isFixedGasLimit": false
    },
    {
      "hash": "0x897a0b0aec77d32a1694b3d77e1b3036c00fe0c799e399ce5edd228663a8aee7",
      "transactionType": "CALL",
      "contractName": null,
      "contractAddress": "0xdedebdb00a83a0bd09b414ea5fd876db40799529",
      "function": "approve(address,uint256)",
      "arguments": [
        "0x000000000022D473030F116dDEE9F6B43aC78BA3",
        "115792089237316195423570985008687907853269984665640564039457584007913129639935"
      ],
      "transaction": {
        "from": "0xa4280dd3f9e1f6bf1778837ac12447615e1d0317",
        "to": "0xdedebdb00a83a0bd09b414ea5fd876db40799529",
        "value": "0x0",
        "input": "0x095ea7b3000000000000000000000000000000000022d473030f116ddee9f6b43ac78ba3ffffffffffffffffffffffffffffffffffffffffffffffffffffffffffffffff",
        "nonce": "0xa",
        "chainId": "0x515"
      },
      "additionalContracts": [],
      "isFixedGasLimit": false
    },
    {
      "hash": "0xbb56187a4c09c7c9950399c1ae56ac50cf0d246cb802d77ee9d98fd79b0c3d62",
      "transactionType": "CALL",
      "contractName": null,
      "contractAddress": "0xeee28afd5077a0add3d1c59f85b8eaee49816127",
      "function": "approve(address,uint256)",
      "arguments": [
        "0x000000000022D473030F116dDEE9F6B43aC78BA3",
        "115792089237316195423570985008687907853269984665640564039457584007913129639935"
      ],
      "transaction": {
        "from": "0xa4280dd3f9e1f6bf1778837ac12447615e1d0317",
        "to": "0xeee28afd5077a0add3d1c59f85b8eaee49816127",
        "value": "0x0",
        "input": "0x095ea7b3000000000000000000000000000000000022d473030f116ddee9f6b43ac78ba3ffffffffffffffffffffffffffffffffffffffffffffffffffffffffffffffff",
        "nonce": "0xb",
        "chainId": "0x515"
      },
      "additionalContracts": [],
      "isFixedGasLimit": false
    },
    {
      "hash": "0x0cfbecb2dda46de9ec9e8b2f6ec511c1dce4f321b598df777db5c034aa7c4f1a",
      "transactionType": "CALL",
      "contractName": null,
      "contractAddress": "0x000000000022d473030f116ddee9f6b43ac78ba3",
      "function": "approve(address,address,uint160,uint48)",
      "arguments": [
        "0xdEDeBDB00a83a0bD09b414Ea5FD876dB40799529",
        "0xf969Aee60879C54bAAed9F3eD26147Db216Fd664",
        "1461501637330902918203684832716283019655932542975",
        "281474976710655"
      ],
      "transaction": {
        "from": "0xa4280dd3f9e1f6bf1778837ac12447615e1d0317",
        "to": "0x000000000022d473030f116ddee9f6b43ac78ba3",
        "value": "0x0",
        "input": "0x87517c45000000000000000000000000dedebdb00a83a0bd09b414ea5fd876db40799529000000000000000000000000f969aee60879c54baaed9f3ed26147db216fd664000000000000000000000000ffffffffffffffffffffffffffffffffffffffff0000000000000000000000000000000000000000000000000000ffffffffffff",
        "nonce": "0xc",
        "chainId": "0x515"
      },
      "additionalContracts": [],
      "isFixedGasLimit": false
    },
    {
      "hash": "0xd3e61d4314ab8e86335b461cedc5e3fd97802cb49e085878b12cbbb6bb90a909",
      "transactionType": "CALL",
      "contractName": null,
      "contractAddress": "0x000000000022d473030f116ddee9f6b43ac78ba3",
      "function": "approve(address,address,uint160,uint48)",
      "arguments": [
        "0xEEe28Afd5077a0Add3D1C59f85B8eaEE49816127",
        "0xf969Aee60879C54bAAed9F3eD26147Db216Fd664",
        "1461501637330902918203684832716283019655932542975",
        "281474976710655"
      ],
      "transaction": {
        "from": "0xa4280dd3f9e1f6bf1778837ac12447615e1d0317",
        "to": "0x000000000022d473030f116ddee9f6b43ac78ba3",
        "value": "0x0",
        "input": "0x87517c45000000000000000000000000eee28afd5077a0add3d1c59f85b8eaee49816127000000000000000000000000f969aee60879c54baaed9f3ed26147db216fd664000000000000000000000000ffffffffffffffffffffffffffffffffffffffff0000000000000000000000000000000000000000000000000000ffffffffffff",
        "nonce": "0xd",
        "chainId": "0x515"
      },
      "additionalContracts": [],
      "isFixedGasLimit": false
    },
    {
      "hash": "0x70c6f6dad9d21a3229ef73b49bbb630b8fcced427fac57c5f10a8a25a5ce09a4",
      "transactionType": "CALL",
      "contractName": null,
      "contractAddress": "0xf969aee60879c54baaed9f3ed26147db216fd664",
      "function": "modifyLiquidities(bytes,uint256)",
      "arguments": [
        "0x000000000000000000000000000000000000000000000000000000000000004000000000000000000000000000000000000000000000000000000000000000800000000000000000000000000000000000000000000000000000000000000004020d14140000000000000000000000000000000000000000000000000000000000000000000000000000000000000000000000000000000000000000000000040000000000000000000000000000000000000000000000000000000000000080000000000000000000000000000000000000000000000000000000000000024000000000000000000000000000000000000000000000000000000000000002a0000000000000000000000000000000000000000000000000000000000000030000000000000000000000000000000000000000000000000000000000000001a0000000000000000000000000dedebdb00a83a0bd09b414ea5fd876db40799529000000000000000000000000eee28afd5077a0add3d1c59f85b8eaee498161270000000000000000000000000000000000000000000000000000000000000bb8000000000000000000000000000000000000000000000000000000000000003c000000000000000000000000da257afcb7a3025690bf3b48ed9a0378fde650c0fffffffffffffffffffffffffffffffffffffffffffffffffffffffffffffda800000000000000000000000000000000000000000000000000000000000002580000000000000000000000000000000000000000000000008ac7230489e800000000000000000000000000000000000000000000000000056bc75e2d631000000000000000000000000000000000000000000000000000056bc75e2d63100000000000000000000000000000a4280dd3f9e1f6bf1778837ac12447615e1d0317000000000000000000000000000000000000000000000000000000000000018000000000000000000000000000000000000000000000000000000000000000000000000000000000000000000000000000000000000000000000000000000040000000000000000000000000dedebdb00a83a0bd09b414ea5fd876db40799529000000000000000000000000eee28afd5077a0add3d1c59f85b8eaee498161270000000000000000000000000000000000000000000000000000000000000040000000000000000000000000dedebdb00a83a0bd09b414ea5fd876db40799529000000000000000000000000a4280dd3f9e1f6bf1778837ac12447615e1d03170000000000000000000000000000000000000000000000000000000000000040000000000000000000000000eee28afd5077a0add3d1c59f85b8eaee49816127000000000000000000000000a4280dd3f9e1f6bf1778837ac12447615e1d0317",
        "1773847487"
      ],
      "transaction": {
        "from": "0xa4280dd3f9e1f6bf1778837ac12447615e1d0317",
        "to": "0xf969aee60879c54baaed9f3ed26147db216fd664",
        "value": "0x0",
        "input": "0xdd46508f00000000000000000000000000000000000000000000000000000000000000400000000000000000000000000000000000000000000000000000000069bac3bf0000000000000000000000000000000000000000000000000000000000000400000000000000000000000000000000000000000000000000000000000000004000000000000000000000000000000000000000000000000000000000000000800000000000000000000000000000000000000000000000000000000000000004020d14140000000000000000000000000000000000000000000000000000000000000000000000000000000000000000000000000000000000000000000000040000000000000000000000000000000000000000000000000000000000000080000000000000000000000000000000000000000000000000000000000000024000000000000000000000000000000000000000000000000000000000000002a0000000000000000000000000000000000000000000000000000000000000030000000000000000000000000000000000000000000000000000000000000001a0000000000000000000000000dedebdb00a83a0bd09b414ea5fd876db40799529000000000000000000000000eee28afd5077a0add3d1c59f85b8eaee498161270000000000000000000000000000000000000000000000000000000000000bb8000000000000000000000000000000000000000000000000000000000000003c000000000000000000000000da257afcb7a3025690bf3b48ed9a0378fde650c0fffffffffffffffffffffffffffffffffffffffffffffffffffffffffffffda800000000000000000000000000000000000000000000000000000000000002580000000000000000000000000000000000000000000000008ac7230489e800000000000000000000000000000000000000000000000000056bc75e2d631000000000000000000000000000000000000000000000000000056bc75e2d63100000000000000000000000000000a4280dd3f9e1f6bf1778837ac12447615e1d0317000000000000000000000000000000000000000000000000000000000000018000000000000000000000000000000000000000000000000000000000000000000000000000000000000000000000000000000000000000000000000000000040000000000000000000000000dedebdb00a83a0bd09b414ea5fd876db40799529000000000000000000000000eee28afd5077a0add3d1c59f85b8eaee498161270000000000000000000000000000000000000000000000000000000000000040000000000000000000000000dedebdb00a83a0bd09b414ea5fd876db40799529000000000000000000000000a4280dd3f9e1f6bf1778837ac12447615e1d03170000000000000000000000000000000000000000000000000000000000000040000000000000000000000000eee28afd5077a0add3d1c59f85b8eaee49816127000000000000000000000000a4280dd3f9e1f6bf1778837ac12447615e1d0317",
        "nonce": "0xe",
        "chainId": "0x515"
      },
      "additionalContracts": [],
      "isFixedGasLimit": false
    },
    {
      "hash": "0xdc7546daff7e1631e30f17d54123c9daf3927ba282af83ff3d90d46a997dd0c2",
      "transactionType": "CALL",
      "contractName": null,
      "contractAddress": "0xdedebdb00a83a0bd09b414ea5fd876db40799529",
      "function": "approve(address,uint256)",
      "arguments": [
        "0xdA257AfcB7a3025690bf3B48ED9A0378FdE650C0",
        "10000000000000000000"
      ],
      "transaction": {
        "from": "0xa4280dd3f9e1f6bf1778837ac12447615e1d0317",
        "to": "0xdedebdb00a83a0bd09b414ea5fd876db40799529",
        "value": "0x0",
        "input": "0x095ea7b3000000000000000000000000da257afcb7a3025690bf3b48ed9a0378fde650c00000000000000000000000000000000000000000000000008ac7230489e80000",
        "nonce": "0xf",
        "chainId": "0x515"
      },
      "additionalContracts": [],
      "isFixedGasLimit": false
    },
    {
      "hash": "0xab672e7f11b081c5b2f0744e2338a8eb2d6a40ad49ebf5fd454f243737b96e15",
      "transactionType": "CALL",
      "contractName": null,
      "contractAddress": "0xda257afcb7a3025690bf3b48ed9a0378fde650c0",
      "function": "activateShield(uint256,address,address,address,uint256,uint256)",
      "arguments": [
        "1301",
        "0x66Cd8DfF334329F5657Ed4d0DBF5ffEca250C565",
        "0xdEDeBDB00a83a0bD09b414Ea5FD876dB40799529",
        "0xEEe28Afd5077a0Add3D1C59f85B8eaEE49816127",
        "1200000000000000000",
        "10000000000000000000"
      ],
      "transaction": {
        "from": "0xa4280dd3f9e1f6bf1778837ac12447615e1d0317",
        "to": "0xda257afcb7a3025690bf3b48ed9a0378fde650c0",
        "value": "0x0",
        "input": "0x62317537000000000000000000000000000000000000000000000000000000000000051500000000000000000000000066cd8dff334329f5657ed4d0dbf5ffeca250c565000000000000000000000000dedebdb00a83a0bd09b414ea5fd876db40799529000000000000000000000000eee28afd5077a0add3d1c59f85b8eaee4981612700000000000000000000000000000000000000000000000010a741a4627800000000000000000000000000000000000000000000000000008ac7230489e80000",
        "nonce": "0x10",
        "chainId": "0x515"
      },
      "additionalContracts": [],
      "isFixedGasLimit": false
    }
  ],
  "receipts": [
    {
      "status": "0x1",
      "cumulativeGasUsed": "0x107172",
      "logs": [
        {
          "address": "0x00b036b58a818b1bc34d502d3fe730db729e62ac",
          "topics": [
            "0xdd466e674ea557f56295e2d0218a125ea4b4f0f6f3307b95f85e6110838d6438",
            "0xb8337e8cbdb1f03ac54a87ce5cf85b5576c442305fd6d80d48fad9a85d7ea2db",
            "0x000000000000000000000000dedebdb00a83a0bd09b414ea5fd876db40799529",
            "0x000000000000000000000000eee28afd5077a0add3d1c59f85b8eaee49816127"
          ],
          "data": "0x0000000000000000000000000000000000000000000000000000000000000bb8000000000000000000000000000000000000000000000000000000000000003c000000000000000000000000da257afcb7a3025690bf3b48ed9a0378fde650c000000000000000000000000000000000000000010000000000000000000000000000000000000000000000000000000000000000000000000000000000000000",
          "blockHash": "0x131fec3dc4e2dfd29423a4a61ee7e9bd972fbd945c8d46d26bac59343f757195",
          "blockNumber": "0x2cd0884",
          "blockTimestamp": "0x69bab5d0",
          "transactionHash": "0x7a6361a7ab20fbccaac63a2d87e508282c6744e5fb1b7d3bdf2a733b78996742",
          "transactionIndex": "0x8",
          "logIndex": "0xc",
          "removed": false
        }
      ],
      "logsBloom": "0x00000000000000000000000000000000000000000000000000000000000000000100000000000000020000000000000000000000000000000000020000000000000000000000000000000000000000000000000000000000000000000000000000200000000000000001000000000000000000000000000000000000000000000000000000000008000000000008002000000001000000200000000000200000000000000000000000000000000000000000000000000000000000000000000000000000002000000000000000000000000000000000000000000000000000000000000000000000000000000000000000000000400002000000000000000010",
      "type": "0x2",
      "transactionHash": "0x7a6361a7ab20fbccaac63a2d87e508282c6744e5fb1b7d3bdf2a733b78996742",
      "transactionIndex": "0x8",
      "blockHash": "0x131fec3dc4e2dfd29423a4a61ee7e9bd972fbd945c8d46d26bac59343f757195",
      "blockNumber": "0x2cd0884",
      "gasUsed": "0xed8d",
      "effectiveGasPrice": "0x7a121",
      "blobGasUsed": "0xdac0",
      "from": "0xa4280dd3f9e1f6bf1778837ac12447615e1d0317",
      "to": "0xf969aee60879c54baaed9f3ed26147db216fd664",
      "contractAddress": null,
      "daFootprintGasScalar": "0x190",
      "l1BaseFeeScalar": "0x7d0",
      "l1BlobBaseFee": "0x1",
      "l1BlobBaseFeeScalar": "0xdbba0",
      "l1Fee": "0xb0",
      "l1GasPrice": "0xb",
      "l1GasUsed": "0x8c9"
    },
    {
      "status": "0x1",
      "cumulativeGasUsed": "0x8f232",
      "logs": [
        {
          "address": "0xdedebdb00a83a0bd09b414ea5fd876db40799529",
          "topics": [
            "0x8c5be1e5ebec7d5bd14f71427d1e84f3dd0314c0f7b2291e5b200ac8c7c3b925",
            "0x000000000000000000000000a4280dd3f9e1f6bf1778837ac12447615e1d0317",
            "0x000000000000000000000000000000000022d473030f116ddee9f6b43ac78ba3"
          ],
          "data": "0xffffffffffffffffffffffffffffffffffffffffffffffffffffffffffffffff",
          "blockHash": "0xd26f71303a847feb4412a4ef043151bd866615d95da16fabd2813c667e98b7ac",
          "blockNumber": "0x2cd0889",
          "blockTimestamp": "0x69bab5d5",
          "transactionHash": "0x897a0b0aec77d32a1694b3d77e1b3036c00fe0c799e399ce5edd228663a8aee7",
          "transactionIndex": "0x7",
          "logIndex": "0x5",
          "removed": false
        }
      ],
      "logsBloom": "0x00000000000000000000000000000000000000000000000000000000004000000000000000000000000000000000000000000000800000000000000000200000000000000000001000004000000000000000000000000800000000000000000000000000000000000010000000000000000000000000000000000000000000000000000000000000000000000000000000000000000000000000000000000000020000000000000000000000000000000000000000000000000004000000000000000000000000000000000000000000000000000000000000000000000000000010000000000000004000000000000000000000000000001000000000000000",
      "type": "0x2",
      "transactionHash": "0x897a0b0aec77d32a1694b3d77e1b3036c00fe0c799e399ce5edd228663a8aee7",
      "transactionIndex": "0x7",
      "blockHash": "0xd26f71303a847feb4412a4ef043151bd866615d95da16fabd2813c667e98b7ac",
      "blockNumber": "0x2cd0889",
      "gasUsed": "0xb78a",
      "effectiveGasPrice": "0x7a121",
      "blobGasUsed": "0x9c40",
      "from": "0xa4280dd3f9e1f6bf1778837ac12447615e1d0317",
      "to": "0xdedebdb00a83a0bd09b414ea5fd876db40799529",
      "contractAddress": null,
      "daFootprintGasScalar": "0x190",
      "l1BaseFeeScalar": "0x7d0",
      "l1BlobBaseFee": "0x1",
      "l1BlobBaseFeeScalar": "0xdbba0",
      "l1Fee": "0x7d",
      "l1GasPrice": "0xb",
      "l1GasUsed": "0x640"
    },
    {
      "status": "0x1",
      "cumulativeGasUsed": "0x33182",
      "logs": [
        {
          "address": "0xeee28afd5077a0add3d1c59f85b8eaee49816127",
          "topics": [
            "0x8c5be1e5ebec7d5bd14f71427d1e84f3dd0314c0f7b2291e5b200ac8c7c3b925",
            "0x000000000000000000000000a4280dd3f9e1f6bf1778837ac12447615e1d0317",
            "0x000000000000000000000000000000000022d473030f116ddee9f6b43ac78ba3"
          ],
          "data": "0xffffffffffffffffffffffffffffffffffffffffffffffffffffffffffffffff",
          "blockHash": "0x0000000000000000000000000000000000000000000000000000000000000000",
          "blockNumber": "0x2cd0891",
          "blockTimestamp": "0x69bab5dd",
          "transactionHash": "0xbb56187a4c09c7c9950399c1ae56ac50cf0d246cb802d77ee9d98fd79b0c3d62",
          "transactionIndex": "0x3",
          "logIndex": "0x1",
          "removed": false
        }
      ],
      "logsBloom": "0x00000000000000000000000000000000000000000000000000000000004000000000000000000000008000000000000000000000800000000000000000200000000000000000001000004000000010000000000000000800000000000000000000000000000000000000000000000000000000000000000000000000000000000000000000000000000000000000000000000000000000000000000000000000020040000000000000000000000000000000000000000000000000000000000000000000000000000000000000000000000000000000000000000000000000000010000000000000000000000000000000000000000000001000000000000000",
      "type": "0x2",
      "transactionHash": "0xbb56187a4c09c7c9950399c1ae56ac50cf0d246cb802d77ee9d98fd79b0c3d62",
      "transactionIndex": "0x3",
      "blockHash": "0x0000000000000000000000000000000000000000000000000000000000000000",
      "blockNumber": "0x2cd0891",
      "gasUsed": "0xb78a",
      "effectiveGasPrice": "0x7a121",
      "blobGasUsed": "0x9c40",
      "from": "0xa4280dd3f9e1f6bf1778837ac12447615e1d0317",
      "to": "0xeee28afd5077a0add3d1c59f85b8eaee49816127",
      "contractAddress": null,
      "daFootprintGasScalar": "0x190",
      "l1BaseFeeScalar": "0x7d0",
      "l1BlobBaseFee": "0x1",
      "l1BlobBaseFeeScalar": "0xdbba0",
      "l1Fee": "0xad",
      "l1GasPrice": "0xb",
      "l1GasUsed": "0x640"
    },
    {
      "status": "0x1",
      "cumulativeGasUsed": "0x462b7",
      "logs": [
        {
          "address": "0x000000000022d473030f116ddee9f6b43ac78ba3",
          "topics": [
            "0xda9fa7c1b00402c17d0161b249b1ab8bbec047c5a52207b9c112deffd817036b",
            "0x000000000000000000000000a4280dd3f9e1f6bf1778837ac12447615e1d0317",
            "0x000000000000000000000000dedebdb00a83a0bd09b414ea5fd876db40799529",
            "0x000000000000000000000000f969aee60879c54baaed9f3ed26147db216fd664"
          ],
          "data": "0x000000000000000000000000ffffffffffffffffffffffffffffffffffffffff0000000000000000000000000000000000000000000000000000ffffffffffff",
          "blockHash": "0x1fff5b8773e1f455a4b6df91112e899e7afeeb3ee4302020aeda23693a7659e8",
          "blockNumber": "0x2cd0896",
          "blockTimestamp": "0x69bab5e2",
          "transactionHash": "0x0cfbecb2dda46de9ec9e8b2f6ec511c1dce4f321b598df777db5c034aa7c4f1a",
          "transactionIndex": "0x4",
          "logIndex": "0x2",
          "removed": false
        }
      ],
      "logsBloom": "0x00010000000000000000000000000000000000000000000000000000004000000000000000000000000000000000000000000000000000000000000000080000000000000000001000000000000000000000000000000000000000001000000000000000000000000001000000000000000000000040000000000000000000000020000000000000000000000000002000000000000000000000000000000000000000000000000000000000000000000000000000000000000000080000000000000000000000000000000000000000000000000000000040000000000000000000000000000000000000000000000000000000400000001000000000002400",
      "type": "0x2",
      "transactionHash": "0x0cfbecb2dda46de9ec9e8b2f6ec511c1dce4f321b598df777db5c034aa7c4f1a",
      "transactionIndex": "0x4",
      "blockHash": "0x1fff5b8773e1f455a4b6df91112e899e7afeeb3ee4302020aeda23693a7659e8",
      "blockNumber": "0x2cd0896",
      "gasUsed": "0xbaca",
      "effectiveGasPrice": "0x7a121",
      "blobGasUsed": "0xa730",
      "from": "0xa4280dd3f9e1f6bf1778837ac12447615e1d0317",
      "to": "0x000000000022d473030f116ddee9f6b43ac78ba3",
      "contractAddress": null,
      "daFootprintGasScalar": "0x190",
      "l1BaseFeeScalar": "0x7d0",
      "l1BlobBaseFee": "0x1",
      "l1BlobBaseFeeScalar": "0xdbba0",
      "l1Fee": "0x87",
      "l1GasPrice": "0xb",
      "l1GasUsed": "0x6bf"
    },
    {
      "status": "0x1",
      "cumulativeGasUsed": "0x8017b",
      "logs": [
        {
          "address": "0x000000000022d473030f116ddee9f6b43ac78ba3",
          "topics": [
            "0xda9fa7c1b00402c17d0161b249b1ab8bbec047c5a52207b9c112deffd817036b",
            "0x000000000000000000000000a4280dd3f9e1f6bf1778837ac12447615e1d0317",
            "0x000000000000000000000000eee28afd5077a0add3d1c59f85b8eaee49816127",
            "0x000000000000000000000000f969aee60879c54baaed9f3ed26147db216fd664"
          ],
          "data": "0x000000000000000000000000ffffffffffffffffffffffffffffffffffffffff0000000000000000000000000000000000000000000000000000ffffffffffff",
          "blockHash": "0x0c218fcb57a19aec2c1ed7f51c563901f9c6491eba7bc5266a5d4b2ef85a703d",
          "blockNumber": "0x2cd089f",
          "blockTimestamp": "0x69bab5eb",
          "transactionHash": "0xd3e61d4314ab8e86335b461cedc5e3fd97802cb49e085878b12cbbb6bb90a909",
          "transactionIndex": "0x6",
          "logIndex": "0xa",
          "removed": false
        }
      ],
      "logsBloom": "0x00010000000000000000000000000000000000000000000000000000004000000100000000000000000000000000000000000000000000000000000000080000000000000000001000000000000000000000000000000000000000001000000000200000000000000000000000000000000000000040000000000000000000000020000000000000000000000000000000000000000000200000000000000000000000000000000000000000000000000000000000000000000000080000000000000000000000000000000000000000000000000000000040000000000000000000000000000000000000000000000000000000000000001000000000002400",
      "type": "0x2",
      "transactionHash": "0xd3e61d4314ab8e86335b461cedc5e3fd97802cb49e085878b12cbbb6bb90a909",
      "transactionIndex": "0x6",
      "blockHash": "0x0c218fcb57a19aec2c1ed7f51c563901f9c6491eba7bc5266a5d4b2ef85a703d",
      "blockNumber": "0x2cd089f",
      "gasUsed": "0xbaca",
      "effectiveGasPrice": "0x7a121",
      "blobGasUsed": "0xa730",
      "from": "0xa4280dd3f9e1f6bf1778837ac12447615e1d0317",
      "to": "0x000000000022d473030f116ddee9f6b43ac78ba3",
      "contractAddress": null,
      "daFootprintGasScalar": "0x190",
      "l1BaseFeeScalar": "0x7d0",
      "l1BlobBaseFee": "0x1",
      "l1BlobBaseFeeScalar": "0xdbba0",
      "l1Fee": "0x87",
      "l1GasPrice": "0xb",
      "l1GasUsed": "0x6bf"
    },
    {
      "status": "0x1",
      "cumulativeGasUsed": "0x96438",
      "logs": [
        {
          "address": "0xf969aee60879c54baaed9f3ed26147db216fd664",
          "topics": [
            "0xddf252ad1be2c89b69c2b068fc378daa952ba7f163c4a11628f55a4df523b3ef",
            "0x0000000000000000000000000000000000000000000000000000000000000000",
            "0x000000000000000000000000a4280dd3f9e1f6bf1778837ac12447615e1d0317",
            "0x0000000000000000000000000000000000000000000000000000000000001c44"
          ],
          "data": "0x",
          "blockHash": "0x1658ae1800f4db75154902eb8d169c5e581ea03a9ebf83f60720da46fabb605c",
          "blockNumber": "0x2cd08a8",
          "blockTimestamp": "0x69bab5f4",
          "transactionHash": "0x70c6f6dad9d21a3229ef73b49bbb630b8fcced427fac57c5f10a8a25a5ce09a4",
          "transactionIndex": "0x3",
          "logIndex": "0x1",
          "removed": false
        },
        {
          "address": "0x00b036b58a818b1bc34d502d3fe730db729e62ac",
          "topics": [
            "0xf208f4912782fd25c7f114ca3723a2d5dd6f3bcc3ac8db5af63baa85f711d5ec",
            "0xb8337e8cbdb1f03ac54a87ce5cf85b5576c442305fd6d80d48fad9a85d7ea2db",
            "0x000000000000000000000000f969aee60879c54baaed9f3ed26147db216fd664"
          ],
          "data": "0xfffffffffffffffffffffffffffffffffffffffffffffffffffffffffffffda800000000000000000000000000000000000000000000000000000000000002580000000000000000000000000000000000000000000000008ac7230489e800000000000000000000000000000000000000000000000000000000000000001c44",
          "blockHash": "0x1658ae1800f4db75154902eb8d169c5e581ea03a9ebf83f60720da46fabb605c",
          "blockNumber": "0x2cd08a8",
          "blockTimestamp": "0x69bab5f4",
          "transactionHash": "0x70c6f6dad9d21a3229ef73b49bbb630b8fcced427fac57c5f10a8a25a5ce09a4",
          "transactionIndex": "0x3",
          "logIndex": "0x2",
          "removed": false
        },
        {
          "address": "0xdedebdb00a83a0bd09b414ea5fd876db40799529",
          "topics": [
            "0xddf252ad1be2c89b69c2b068fc378daa952ba7f163c4a11628f55a4df523b3ef",
            "0x000000000000000000000000a4280dd3f9e1f6bf1778837ac12447615e1d0317",
            "0x00000000000000000000000000b036b58a818b1bc34d502d3fe730db729e62ac"
          ],
          "data": "0x0000000000000000000000000000000000000000000000000419ef1172f137b1",
          "blockHash": "0x1658ae1800f4db75154902eb8d169c5e581ea03a9ebf83f60720da46fabb605c",
          "blockNumber": "0x2cd08a8",
          "blockTimestamp": "0x69bab5f4",
          "transactionHash": "0x70c6f6dad9d21a3229ef73b49bbb630b8fcced427fac57c5f10a8a25a5ce09a4",
          "transactionIndex": "0x3",
          "logIndex": "0x3",
          "removed": false
        },
        {
          "address": "0xeee28afd5077a0add3d1c59f85b8eaee49816127",
          "topics": [
            "0xddf252ad1be2c89b69c2b068fc378daa952ba7f163c4a11628f55a4df523b3ef",
            "0x000000000000000000000000a4280dd3f9e1f6bf1778837ac12447615e1d0317",
            "0x00000000000000000000000000b036b58a818b1bc34d502d3fe730db729e62ac"
          ],
          "data": "0x0000000000000000000000000000000000000000000000000419ef1172f137b1",
          "blockHash": "0x1658ae1800f4db75154902eb8d169c5e581ea03a9ebf83f60720da46fabb605c",
          "blockNumber": "0x2cd08a8",
          "blockTimestamp": "0x69bab5f4",
          "transactionHash": "0x70c6f6dad9d21a3229ef73b49bbb630b8fcced427fac57c5f10a8a25a5ce09a4",
          "transactionIndex": "0x3",
          "logIndex": "0x4",
          "removed": false
        }
      ],
      "logsBloom": "0x00000000000000000000000000000000000000000000000000000000004000000000000000000000028000000000000000000000001000000000020000000000000000000000001000000008000010000000000000000000000000001000000000000000020000004010000000004800000000000040000000000010000000000800000001000000000000000008000000000000000000000000000000000000000044000000000000000000000000000800000000000020000004000000000000000002082000000000000000000000000000000000000000000000000020004000000000000000004000000020000004000000000002001000000000002010",
      "type": "0x2",
      "transactionHash": "0x70c6f6dad9d21a3229ef73b49bbb630b8fcced427fac57c5f10a8a25a5ce09a4",
      "transactionIndex": "0x3",
      "blockHash": "0x1658ae1800f4db75154902eb8d169c5e581ea03a9ebf83f60720da46fabb605c",
      "blockNumber": "0x2cd08a8",
      "gasUsed": "0x6ea4c",
      "effectiveGasPrice": "0x7a121",
      "blobGasUsed": "0x1b710",
      "from": "0xa4280dd3f9e1f6bf1778837ac12447615e1d0317",
      "to": "0xf969aee60879c54baaed9f3ed26147db216fd664",
      "contractAddress": null,
      "daFootprintGasScalar": "0x190",
      "l1BaseFeeScalar": "0x7d0",
      "l1BlobBaseFee": "0x1",
      "l1BlobBaseFeeScalar": "0xdbba0",
      "l1Fee": "0x15f",
      "l1GasPrice": "0xb",
      "l1GasUsed": "0x1192"
    },
    {
      "status": "0x1",
      "cumulativeGasUsed": "0x3307a",
      "logs": [
        {
          "address": "0xdedebdb00a83a0bd09b414ea5fd876db40799529",
          "topics": [
            "0x8c5be1e5ebec7d5bd14f71427d1e84f3dd0314c0f7b2291e5b200ac8c7c3b925",
            "0x000000000000000000000000a4280dd3f9e1f6bf1778837ac12447615e1d0317",
            "0x000000000000000000000000da257afcb7a3025690bf3b48ed9a0378fde650c0"
          ],
          "data": "0x0000000000000000000000000000000000000000000000008ac7230489e80000",
          "blockHash": "0x27349ed3260fff3de5f231a865dc30b40ff9dc41cc80ecd9aec7eda2d7e78691",
          "blockNumber": "0x2cd08b1",
          "blockTimestamp": "0x69bab5fd",
          "transactionHash": "0xdc7546daff7e1631e30f17d54123c9daf3927ba282af83ff3d90d46a997dd0c2",
          "transactionIndex": "0x3",
          "logIndex": "0x1",
          "removed": false
        }
      ],
      "logsBloom": "0x00000000000000000000000000000000000000000000000000000000004000000000000000000000000000000000000000000000000000000000000000200000000000000000001000000000000000000000000000000000000010000000000000000000000000000010000040000000000000000000000000000000000000000000000000000000000000000000000000000000000000000000000000000000020000000000000000000000000000000000000000000000000004000000000000000000000000000000000000000000000000000000000000000000000000000010000010000000004000000000000000000000000000001000000000000000",
      "type": "0x2",
      "transactionHash": "0xdc7546daff7e1631e30f17d54123c9daf3927ba282af83ff3d90d46a997dd0c2",
      "transactionIndex": "0x3",
      "blockHash": "0x27349ed3260fff3de5f231a865dc30b40ff9dc41cc80ecd9aec7eda2d7e78691",
      "blockNumber": "0x2cd08b1",
      "gasUsed": "0xb68e",
      "effectiveGasPrice": "0x7a121",
      "blobGasUsed": "0x9c40",
      "from": "0xa4280dd3f9e1f6bf1778837ac12447615e1d0317",
      "to": "0xdedebdb00a83a0bd09b414ea5fd876db40799529",
      "contractAddress": null,
      "daFootprintGasScalar": "0x190",
      "l1BaseFeeScalar": "0x7d0",
      "l1BlobBaseFee": "0x1",
      "l1BlobBaseFeeScalar": "0xdbba0",
      "l1Fee": "0x7d",
      "l1GasPrice": "0xb",
      "l1GasUsed": "0x640"
    },
    {
      "status": "0x1",
      "cumulativeGasUsed": "0x73f96",
      "logs": [
        {
          "address": "0xdedebdb00a83a0bd09b414ea5fd876db40799529",
          "topics": [
            "0xddf252ad1be2c89b69c2b068fc378daa952ba7f163c4a11628f55a4df523b3ef",
            "0x000000000000000000000000a4280dd3f9e1f6bf1778837ac12447615e1d0317",
            "0x000000000000000000000000da257afcb7a3025690bf3b48ed9a0378fde650c0"
          ],
          "data": "0x0000000000000000000000000000000000000000000000008ac7230489e80000",
          "blockHash": "0x0000000000000000000000000000000000000000000000000000000000000000",
          "blockNumber": "0x2cd08bd",
          "blockTimestamp": "0x69bab609",
          "transactionHash": "0xab672e7f11b081c5b2f0744e2338a8eb2d6a40ad49ebf5fd454f243737b96e15",
          "transactionIndex": "0x3",
          "logIndex": "0x1",
          "removed": false
        },
        {
          "address": "0xda257afcb7a3025690bf3b48ed9a0378fde650c0",
          "topics": [
            "0x8776ac1eebedf300fb512986bfbc3010750c9c74b63a53bd060c789c80f0f521",
            "0x000000000000000000000000a4280dd3f9e1f6bf1778837ac12447615e1d0317",
            "0x0000000000000000000000000000000000000000000000000000000000000515"
          ],
          "data": "0x00000000000000000000000066cd8dff334329f5657ed4d0dbf5ffeca250c56500000000000000000000000000000000000000000000000010a741a4627800000000000000000000000000000000000000000000000000008ac7230489e80000",
          "blockHash": "0x0000000000000000000000000000000000000000000000000000000000000000",
          "blockNumber": "0x2cd08bd",
          "blockTimestamp": "0x69bab609",
          "transactionHash": "0xab672e7f11b081c5b2f0744e2338a8eb2d6a40ad49ebf5fd454f243737b96e15",
          "transactionIndex": "0x3",
          "logIndex": "0x2",
          "removed": false
        },
        {
          "address": "0xda257afcb7a3025690bf3b48ed9a0378fde650c0",
          "topics": [
            "0x44cce8cc7a0253efc185826666b888c4c6d071aa7e3c8a61df699329ffb47289",
            "0x000000000000000000000000a4280dd3f9e1f6bf1778837ac12447615e1d0317",
            "0x0000000000000000000000000000000000000000000000000000000000000515",
            "0x00000000000000000000000066cd8dff334329f5657ed4d0dbf5ffeca250c565"
          ],
          "data": "0x00000000000000000000000000000000000000000000000010a741a462780000",
          "blockHash": "0x0000000000000000000000000000000000000000000000000000000000000000",
          "blockNumber": "0x2cd08bd",
          "blockTimestamp": "0x69bab609",
          "transactionHash": "0xab672e7f11b081c5b2f0744e2338a8eb2d6a40ad49ebf5fd454f243737b96e15",
          "transactionIndex": "0x3",
          "logIndex": "0x3",
          "removed": false
        }
      ],
      "logsBloom": "0x00000000000000000000000000000004000000000100000010000000004000000000000000000040040001000000000800000000000000000000000000000000000000020000001000000008000020000000000000000000000210000000000000000000000000000010000040000000080000000000000000000010000000000000000000000000000000000080000000000000000000000000000000000000000000000000000000010000000000000000000000000000000004000000000000000002000000000000040000000000000000000000000000000100000000000000000010000000004000000000000000000000000000001000000000000000",
      "type": "0x2",
      "transactionHash": "0xab672e7f11b081c5b2f0744e2338a8eb2d6a40ad49ebf5fd454f243737b96e15",
      "transactionIndex": "0x3",
      "blockHash": "0x0000000000000000000000000000000000000000000000000000000000000000",
      "blockNumber": "0x2cd08bd",
      "gasUsed": "0x4c59e",
      "effectiveGasPrice": "0x7a121",
      "blobGasUsed": "0xe100",
      "from": "0xa4280dd3f9e1f6bf1778837ac12447615e1d0317",
      "to": "0xda257afcb7a3025690bf3b48ed9a0378fde650c0",
      "contractAddress": null,
      "daFootprintGasScalar": "0x190",
      "l1BaseFeeScalar": "0x7d0",
      "l1BlobBaseFee": "0x1",
      "l1BlobBaseFeeScalar": "0xdbba0",
      "l1Fee": "0xac",
      "l1GasPrice": "0xb",
      "l1GasUsed": "0x90c"
    }
  ],
  "libraries": [],
  "pending": [],
  "returns": {},
  "timestamp": 1773843976,
  "chain": 1301,
  "commit": null
}