{
  "transactions": [
    {
      "hash": "0x62afa0b6b9c9356d9b6baf5a93b2811f5d36b0f49deeaab69985f14c36876877",
      "transactionType": "CALL",
      "contractName": null,
      "contractAddress": "0x429ba70129df741b2ca2a85bc3a2a3328e5c09b4",
      "function": "initializePool((address,address,uint24,int24,address),uint160)",
      "arguments": [
        "(0xaa0C5D4170B14dc765806b14d9a28e71622979AB, 0xe3fCC621Df2C3E78382bE425Cc3998d55752265d, 3000, 60, 0xB5D8ca1A1C0Eb0aF80a77020F78e4760b906D0C0)",
        "79228162514264337593543950336"
      ],
      "transaction": {
        "from": "0x8822f2965090ddc102f7de354dfd6e642c090269",
        "to": "0x429ba70129df741b2ca2a85bc3a2a3328e5c09b4",
        "gas": "0x1481c",
        "value": "0x0",
        "input": "0xf7020405000000000000000000000000aa0c5d4170b14dc765806b14d9a28e71622979ab000000000000000000000000e3fcc621df2c3e78382be425cc3998d55752265d0000000000000000000000000000000000000000000000000000000000000bb8000000000000000000000000000000000000000000000000000000000000003c000000000000000000000000b5d8ca1a1c0eb0af80a77020f78e4760b906d0c00000000000000000000000000000000000000001000000000000000000000000",
        "nonce": "0x27a",
        "chainId": "0xaa36a7"
      },
      "additionalContracts": [],
      "isFixedGasLimit": false
    },
    {
      "hash": "0x085587d34304cb43b9bdcdd5311eea0e06080afaae69ec6f1d8c676cef59fd21",
      "transactionType": "CALL",
      "contractName": null,
      "contractAddress": "0xaa0c5d4170b14dc765806b14d9a28e71622979ab",
      "function": "approve(address,uint256)",
      "arguments": [
        "0x000000000022D473030F116dDEE9F6B43aC78BA3",
        "115792089237316195423570985008687907853269984665640564039457584007913129639935"
      ],
      "transaction": {
        "from": "0x8822f2965090ddc102f7de354dfd6e642c090269",
        "to": "0xaa0c5d4170b14dc765806b14d9a28e71622979ab",
        "gas": "0x10c6c",
        "value": "0x0",
        "input": "0x095ea7b3000000000000000000000000000000000022d473030f116ddee9f6b43ac78ba3ffffffffffffffffffffffffffffffffffffffffffffffffffffffffffffffff",
        "nonce": "0x27b",
        "chainId": "0xaa36a7"
      },
      "additionalContracts": [],
      "isFixedGasLimit": false
    },
    {
      "hash": "0x807ed6db98da321a4f11438d317416d1e2805f45f484e35361f72a8d697bd21f",
      "transactionType": "CALL",
      "contractName": null,
      "contractAddress": "0xe3fcc621df2c3e78382be425cc3998d55752265d",
      "function": "approve(address,uint256)",
      "arguments": [
        "0x000000000022D473030F116dDEE9F6B43aC78BA3",
        "115792089237316195423570985008687907853269984665640564039457584007913129639935"
      ],
      "transaction": {
        "from": "0x8822f2965090ddc102f7de354dfd6e642c090269",
        "to": "0xe3fcc621df2c3e78382be425cc3998d55752265d",
        "gas": "0x10c6c",
        "value": "0x0",
        "input": "0x095ea7b3000000000000000000000000000000000022d473030f116ddee9f6b43ac78ba3ffffffffffffffffffffffffffffffffffffffffffffffffffffffffffffffff",
        "nonce": "0x27c",
        "chainId": "0xaa36a7"
      },
      "additionalContracts": [],
      "isFixedGasLimit": false
    },
    {
      "hash": "0x1f1b445965214122b4e1dff913badb410ed3dacfc03ccded35cb76c9918de218",
      "transactionType": "CALL",
      "contractName": null,
      "contractAddress": "0x000000000022d473030f116ddee9f6b43ac78ba3",
      "function": "approve(address,address,uint160,uint48)",
      "arguments": [
        "0xaa0C5D4170B14dc765806b14d9a28e71622979AB",
        "0x429ba70129df741B2Ca2a85BC3A2a3328e5c09b4",
        "1461501637330902918203684832716283019655932542975",
        "281474976710655"
      ],
      "transaction": {
        "from": "0x8822f2965090ddc102f7de354dfd6e642c090269",
        "to": "0x000000000022d473030f116ddee9f6b43ac78ba3",
        "gas": "0x1112d",
        "value": "0x0",
        "input": "0x87517c45000000000000000000000000aa0c5d4170b14dc765806b14d9a28e71622979ab000000000000000000000000429ba70129df741b2ca2a85bc3a2a3328e5c09b4000000000000000000000000ffffffffffffffffffffffffffffffffffffffff0000000000000000000000000000000000000000000000000000ffffffffffff",
        "nonce": "0x27d",
        "chainId": "0xaa36a7"
      },
      "additionalContracts": [],
      "isFixedGasLimit": false
    },
    {
      "hash": "0x1251bde8bf0bf7b3dec414cab759d4091a4f2682b22c37cc208358763ca9eb0d",
      "transactionType": "CALL",
      "contractName": null,
      "contractAddress": "0x000000000022d473030f116ddee9f6b43ac78ba3",
      "function": "approve(address,address,uint160,uint48)",
      "arguments": [
        "0xe3fCC621Df2C3E78382bE425Cc3998d55752265d",
        "0x429ba70129df741B2Ca2a85BC3A2a3328e5c09b4",
        "1461501637330902918203684832716283019655932542975",
        "281474976710655"
      ],
      "transaction": {
        "from": "0x8822f2965090ddc102f7de354dfd6e642c090269",
        "to": "0x000000000022d473030f116ddee9f6b43ac78ba3",
        "gas": "0x1112d",
        "value": "0x0",
        "input": "0x87517c45000000000000000000000000e3fcc621df2c3e78382be425cc3998d55752265d000000000000000000000000429ba70129df741b2ca2a85bc3a2a3328e5c09b4000000000000000000000000ffffffffffffffffffffffffffffffffffffffff0000000000000000000000000000000000000000000000000000ffffffffffff",
        "nonce": "0x27e",
        "chainId": "0xaa36a7"
      },
      "additionalContracts": [],
      "isFixedGasLimit": false
    },
    {
      "hash": "0x831c2c803ccc07fcfcf4546a0c1856d16f8bab589ba34a1dd516daeebee50140",
      "transactionType": "CALL",
      "contractName": null,
      "contractAddress": "0x429ba70129df741b2ca2a85bc3a2a3328e5c09b4",
      "function": "modifyLiquidities(bytes,uint256)",
      "arguments": [
        "0x000000000000000000000000000000000000000000000000000000000000004000000000000000000000000000000000000000000000000000000000000000800000000000000000000000000000000000000000000000000000000000000004020d14140000000000000000000000000000000000000000000000000000000000000000000000000000000000000000000000000000000000000000000000040000000000000000000000000000000000000000000000000000000000000080000000000000000000000000000000000000000000000000000000000000024000000000000000000000000000000000000000000000000000000000000002a0000000000000000000000000000000000000000000000000000000000000030000000000000000000000000000000000000000000000000000000000000001a0000000000000000000000000aa0c5d4170b14dc765806b14d9a28e71622979ab000000000000000000000000e3fcc621df2c3e78382be425cc3998d55752265d0000000000000000000000000000000000000000000000000000000000000bb8000000000000000000000000000000000000000000000000000000000000003c000000000000000000000000b5d8ca1a1c0eb0af80a77020f78e4760b906d0c0fffffffffffffffffffffffffffffffffffffffffffffffffffffffffffffda800000000000000000000000000000000000000000000000000000000000002580000000000000000000000000000000000000000000000008ac7230489e800000000000000000000000000000000000000000000000000056bc75e2d631000000000000000000000000000000000000000000000000000056bc75e2d631000000000000000000000000000001804c8ab1f12e6bbf3894d4083f33e07309d1f38000000000000000000000000000000000000000000000000000000000000018000000000000000000000000000000000000000000000000000000000000000000000000000000000000000000000000000000000000000000000000000000040000000000000000000000000aa0c5d4170b14dc765806b14d9a28e71622979ab000000000000000000000000e3fcc621df2c3e78382be425cc3998d55752265d0000000000000000000000000000000000000000000000000000000000000040000000000000000000000000aa0c5d4170b14dc765806b14d9a28e71622979ab0000000000000000000000001804c8ab1f12e6bbf3894d4083f33e07309d1f380000000000000000000000000000000000000000000000000000000000000040000000000000000000000000e3fcc621df2c3e78382be425cc3998d55752265d0000000000000000000000001804c8ab1f12e6bbf3894d4083f33e07309d1f38",
        "1773686304"
      ],
      "transaction": {
        "from": "0x8822f2965090ddc102f7de354dfd6e642c090269",
        "to": "0x429ba70129df741b2ca2a85bc3a2a3328e5c09b4",
        "gas": "0x930f5",
        "value": "0x0",
        "input": "0xdd46508f00000000000000000000000000000000000000000000000000000000000000400000000000000000000000000000000000000000000000000000000069b84e200000000000000000000000000000000000000000000000000000000000000400000000000000000000000000000000000000000000000000000000000000004000000000000000000000000000000000000000000000000000000000000000800000000000000000000000000000000000000000000000000000000000000004020d14140000000000000000000000000000000000000000000000000000000000000000000000000000000000000000000000000000000000000000000000040000000000000000000000000000000000000000000000000000000000000080000000000000000000000000000000000000000000000000000000000000024000000000000000000000000000000000000000000000000000000000000002a0000000000000000000000000000000000000000000000000000000000000030000000000000000000000000000000000000000000000000000000000000001a0000000000000000000000000aa0c5d4170b14dc765806b14d9a28e71622979ab000000000000000000000000e3fcc621df2c3e78382be425cc3998d55752265d0000000000000000000000000000000000000000000000000000000000000bb8000000000000000000000000000000000000000000000000000000000000003c000000000000000000000000b5d8ca1a1c0eb0af80a77020f78e4760b906d0c0fffffffffffffffffffffffffffffffffffffffffffffffffffffffffffffda800000000000000000000000000000000000000000000000000000000000002580000000000000000000000000000000000000000000000008ac7230489e800000000000000000000000000000000000000000000000000056bc75e2d631000000000000000000000000000000000000000000000000000056bc75e2d631000000000000000000000000000001804c8ab1f12e6bbf3894d4083f33e07309d1f38000000000000000000000000000000000000000000000000000000000000018000000000000000000000000000000000000000000000000000000000000000000000000000000000000000000000000000000000000000000000000000000040000000000000000000000000aa0c5d4170b14dc765806b14d9a28e71622979ab000000000000000000000000e3fcc621df2c3e78382be425cc3998d55752265d0000000000000000000000000000000000000000000000000000000000000040000000000000000000000000aa0c5d4170b14dc765806b14d9a28e71622979ab0000000000000000000000001804c8ab1f12e6bbf3894d4083f33e07309d1f380000000000000000000000000000000000000000000000000000000000000040000000000000000000000000e3fcc621df2c3e78382be425cc3998d55752265d0000000000000000000000001804c8ab1f12e6bbf3894d4083f33e07309d1f38",
        "nonce": "0x27f",
        "chainId": "0xaa36a7"
      },
      "additionalContracts": [],
      "isFixedGasLimit": false
    },
    {
      "hash": "0x09afe17f1e6249772912d5c37f37c2b0d999cc60b6b9bac93028fbd2e4f4726d",
      "transactionType": "CALL",
      "contractName": null,
      "contractAddress": "0xe3fcc621df2c3e78382be425cc3998d55752265d",
      "function": "approve(address,uint256)",
      "arguments": [
        "0xB5D8ca1A1C0Eb0aF80a77020F78e4760b906D0C0",
        "10000000000000000000"
      ],
      "transaction": {
        "from": "0x8822f2965090ddc102f7de354dfd6e642c090269",
        "to": "0xe3fcc621df2c3e78382be425cc3998d55752265d",
        "gas": "0xfc26",
        "value": "0x0",
        "input": "0x095ea7b3000000000000000000000000b5d8ca1a1c0eb0af80a77020f78e4760b906d0c00000000000000000000000000000000000000000000000008ac7230489e80000",
        "nonce": "0x280",
        "chainId": "0xaa36a7"
      },
      "additionalContracts": [],
      "isFixedGasLimit": false
    },
    {
      "hash": "0xf97f0a6eaeb814482462fe58f7b3f5e8031249eb351ba94ec9fb53c368500f40",
      "transactionType": "CALL",
      "contractName": null,
      "contractAddress": "0xb5d8ca1a1c0eb0af80a77020f78e4760b906d0c0",
      "function": "activateShield(uint256,address,address,address,uint256,uint256)",
      "arguments": [
        "11155111",
        "0x0000000000000000000000000000000000000123",
        "0xe3fCC621Df2C3E78382bE425Cc3998d55752265d",
        "0xaa0C5D4170B14dc765806b14d9a28e71622979AB",
        "1200000000000000000",
        "10000000000000000000"
      ],
      "transaction": {
        "from": "0x8822f2965090ddc102f7de354dfd6e642c090269",
        "to": "0xb5d8ca1a1c0eb0af80a77020f78e4760b906d0c0",
        "gas": "0x6f972",
        "value": "0x0",
        "input": "0x623175370000000000000000000000000000000000000000000000000000000000aa36a70000000000000000000000000000000000000000000000000000000000000123000000000000000000000000e3fcc621df2c3e78382be425cc3998d55752265d000000000000000000000000aa0c5d4170b14dc765806b14d9a28e71622979ab00000000000000000000000000000000000000000000000010a741a4627800000000000000000000000000000000000000000000000000008ac7230489e80000",
        "nonce": "0x281",
        "chainId": "0xaa36a7"
      },
      "additionalContracts": [],
      "isFixedGasLimit": false
    }
  ],
  "receipts": [
    {
      "status": "0x1",
      "cumulativeGasUsed": "0xba7c41",
      "logs": [
        {
          "address": "0xe03a1074c86cfedd5c142c4f04f1a1536e203543",
          "topics": [
            "0xdd466e674ea557f56295e2d0218a125ea4b4f0f6f3307b95f85e6110838d6438",
            "0x7f2f2e90c49e4b551f4bc40be14efd4c48db78543dddec8ade8d974051f724e7",
            "0x000000000000000000000000aa0c5d4170b14dc765806b14d9a28e71622979ab",
            "0x000000000000000000000000e3fcc621df2c3e78382be425cc3998d55752265d"
          ],
          "data": "0x0000000000000000000000000000000000000000000000000000000000000bb8000000000000000000000000000000000000000000000000000000000000003c000000000000000000000000b5d8ca1a1c0eb0af80a77020f78e4760b906d0c000000000000000000000000000000000000000010000000000000000000000000000000000000000000000000000000000000000000000000000000000000000",
          "blockHash": "0x740278e73e172af252af7aea8f54de90c56abda785e63baae58ab1d0c89cc621",
          "blockNumber": "0x9f974f",
          "blockTimestamp": "0x69b84070",
          "transactionHash": "0x62afa0b6b9c9356d9b6baf5a93b2811f5d36b0f49deeaab69985f14c36876877",
          "transactionIndex": "0x4c",
          "logIndex": "0x99",
          "removed": false
        }
      ],
      "logsBloom": "0x00000000000000000000000000000000000000000008000000000000000000000000000000000000000000000000000000000100000000100000000000000000000000000000000000000000000000000000000000000000800000000000000000000000000000000000000000000000000000000000108000000000000000000000000000000008000000000000000000000001000000000000000000200000000000000001000000000000000000000000000000000000000000000008000000000000000000000040000000000000000000000000000000000000000000801000000000000000000000000000000000000000000000000000800000000000",
      "type": "0x2",
      "transactionHash": "0x62afa0b6b9c9356d9b6baf5a93b2811f5d36b0f49deeaab69985f14c36876877",
      "transactionIndex": "0x4c",
      "blockHash": "0x740278e73e172af252af7aea8f54de90c56abda785e63baae58ab1d0c89cc621",
      "blockNumber": "0x9f974f",
      "gasUsed": "0xed8d",
      "effectiveGasPrice": "0xfa1e7",
      "from": "0x8822f2965090ddc102f7de354dfd6e642c090269",
      "to": "0x429ba70129df741b2ca2a85bc3a2a3328e5c09b4",
      "contractAddress": null
    },
    {
      "status": "0x1",
      "cumulativeGasUsed": "0xbb33cb",
      "logs": [
        {
          "address": "0xaa0c5d4170b14dc765806b14d9a28e71622979ab",
          "topics": [
            "0x8c5be1e5ebec7d5bd14f71427d1e84f3dd0314c0f7b2291e5b200ac8c7c3b925",
            "0x0000000000000000000000008822f2965090ddc102f7de354dfd6e642c090269",
            "0x000000000000000000000000000000000022d473030f116ddee9f6b43ac78ba3"
          ],
          "data": "0xffffffffffffffffffffffffffffffffffffffffffffffffffffffffffffffff",
          "blockHash": "0x740278e73e172af252af7aea8f54de90c56abda785e63baae58ab1d0c89cc621",
          "blockNumber": "0x9f974f",
          "blockTimestamp": "0x69b84070",
          "transactionHash": "0x085587d34304cb43b9bdcdd5311eea0e06080afaae69ec6f1d8c676cef59fd21",
          "transactionIndex": "0x4d",
          "logIndex": "0x9a",
          "removed": false
        }
      ],
      "logsBloom": "0x00200000000000000000000000000000000000000000000000000000000000000000000000000000000000000000000000000000800000000000000000200000000000000000000000004000000000000000400000000800000000000000000000000000000000000000000000000000000000000000000000000000000000000000008000000000000000000000000000000000000000000000000000000000020000000000000000000000000000040800000000000000000000000000000000000000000000000000000000000000000000000000000000000000000000000010000000000000000000000000000000000000000000002000000000000000",
      "type": "0x2",
      "transactionHash": "0x085587d34304cb43b9bdcdd5311eea0e06080afaae69ec6f1d8c676cef59fd21",
      "transactionIndex": "0x4d",
      "blockHash": "0x740278e73e172af252af7aea8f54de90c56abda785e63baae58ab1d0c89cc621",
      "blockNumber": "0x9f974f",
      "gasUsed": "0xb78a",
      "effectiveGasPrice": "0xfa1e7",
      "from": "0x8822f2965090ddc102f7de354dfd6e642c090269",
      "to": "0xaa0c5d4170b14dc765806b14d9a28e71622979ab",
      "contractAddress": null
    },
    {
      "status": "0x1",
      "cumulativeGasUsed": "0xbbeb55",
      "logs": [
        {
          "address": "0xe3fcc621df2c3e78382be425cc3998d55752265d",
          "topics": [
            "0x8c5be1e5ebec7d5bd14f71427d1e84f3dd0314c0f7b2291e5b200ac8c7c3b925",
            "0x0000000000000000000000008822f2965090ddc102f7de354dfd6e642c090269",
            "0x000000000000000000000000000000000022d473030f116ddee9f6b43ac78ba3"
          ],
          "data": "0xffffffffffffffffffffffffffffffffffffffffffffffffffffffffffffffff",
          "blockHash": "0x740278e73e172af252af7aea8f54de90c56abda785e63baae58ab1d0c89cc621",
          "blockNumber": "0x9f974f",
          "blockTimestamp": "0x69b84070",
          "transactionHash": "0x807ed6db98da321a4f11438d317416d1e2805f45f484e35361f72a8d697bd21f",
          "transactionIndex": "0x4e",
          "logIndex": "0x9b",
          "removed": false
        }
      ],
      "logsBloom": "0x00200000000000000000000000000000000000000000000200000000000000000000000000000000000000000000000000000000800000000000000000200000000000000000000001004000000000000000000000000800000000000000000000000000000000000000000000000000000000000000000000000000000000000000008000000000000000000000000000000000000000000000000000000000020000000000000000000000000000000800000000000000000000000000000000000000000000000000000000000000000000000000000000000000000000000010004000000000000000000000000000000000000000000000000000000000",
      "type": "0x2",
      "transactionHash": "0x807ed6db98da321a4f11438d317416d1e2805f45f484e35361f72a8d697bd21f",
      "transactionIndex": "0x4e",
      "blockHash": "0x740278e73e172af252af7aea8f54de90c56abda785e63baae58ab1d0c89cc621",
      "blockNumber": "0x9f974f",
      "gasUsed": "0xb78a",
      "effectiveGasPrice": "0xfa1e7",
      "from": "0x8822f2965090ddc102f7de354dfd6e642c090269",
      "to": "0xe3fcc621df2c3e78382be425cc3998d55752265d",
      "contractAddress": null
    },
    {
      "status": "0x1",
      "cumulativeGasUsed": "0xbca61f",
      "logs": [
        {
          "address": "0x000000000022d473030f116ddee9f6b43ac78ba3",
          "topics": [
            "0xda9fa7c1b00402c17d0161b249b1ab8bbec047c5a52207b9c112deffd817036b",
            "0x0000000000000000000000008822f2965090ddc102f7de354dfd6e642c090269",
            "0x000000000000000000000000aa0c5d4170b14dc765806b14d9a28e71622979ab",
            "0x000000000000000000000000429ba70129df741b2ca2a85bc3a2a3328e5c09b4"
          ],
          "data": "0x000000000000000000000000ffffffffffffffffffffffffffffffffffffffff0000000000000000000000000000000000000000000000000000ffffffffffff",
          "blockHash": "0x740278e73e172af252af7aea8f54de90c56abda785e63baae58ab1d0c89cc621",
          "blockNumber": "0x9f974f",
          "blockTimestamp": "0x69b84070",
          "transactionHash": "0x1f1b445965214122b4e1dff913badb410ed3dacfc03ccded35cb76c9918de218",
          "transactionIndex": "0x4f",
          "logIndex": "0x9c",
          "removed": false
        }
      ],
      "logsBloom": "0x00210000000000000000000000000000000000000000000000000000000000000000000000000040080000000000000000000000000000100000000000080000000000000000000000000000000000000000000000000000000000000000000000000000000000000000000000000000000000000000000000000800000000000020008000000000000000000000000000000000000000000000000000000000000000000001000000000000000000000800000000000000000000080000000000000000000000000040000000000000000000000000000040000000000000000000000000000000000000000000000000000000000000000000000000000400",
      "type": "0x2",
      "transactionHash": "0x1f1b445965214122b4e1dff913badb410ed3dacfc03ccded35cb76c9918de218",
      "transactionIndex": "0x4f",
      "blockHash": "0x740278e73e172af252af7aea8f54de90c56abda785e63baae58ab1d0c89cc621",
      "blockNumber": "0x9f974f",
      "gasUsed": "0xbaca",
      "effectiveGasPrice": "0xfa1e7",
      "from": "0x8822f2965090ddc102f7de354dfd6e642c090269",
      "to": "0x000000000022d473030f116ddee9f6b43ac78ba3",
      "contractAddress": null
    },
    {
      "status": "0x1",
      "cumulativeGasUsed": "0xbd60e9",
      "logs": [
        {
          "address": "0x000000000022d473030f116ddee9f6b43ac78ba3",
          "topics": [
            "0xda9fa7c1b00402c17d0161b249b1ab8bbec047c5a52207b9c112deffd817036b",
            "0x0000000000000000000000008822f2965090ddc102f7de354dfd6e642c090269",
            "0x000000000000000000000000e3fcc621df2c3e78382be425cc3998d55752265d",
            "0x000000000000000000000000429ba70129df741b2ca2a85bc3a2a3328e5c09b4"
          ],
          "data": "0x000000000000000000000000ffffffffffffffffffffffffffffffffffffffff0000000000000000000000000000000000000000000000000000ffffffffffff",
          "blockHash": "0x740278e73e172af252af7aea8f54de90c56abda785e63baae58ab1d0c89cc621",
          "blockNumber": "0x9f974f",
          "blockTimestamp": "0x69b84070",
          "transactionHash": "0x1251bde8bf0bf7b3dec414cab759d4091a4f2682b22c37cc208358763ca9eb0d",
          "transactionIndex": "0x50",
          "logIndex": "0x9d",
          "removed": false
        }
      ],
      "logsBloom": "0x00210000000000000000000000000000000000000000000000000000000000000000000000000040080000000000000000000000000000000000000000080000000000000000000000000000000000000000000000000000800000000000000000000000000000000000000000000000000000000000008000000800000000000020008000000000000000000000000000000000000000000000000000000000000000000000000000000000000000000800000000000000000000080000000000000000000000000000000000000000000000000000000040000000000000800000000000000000000000000000000000000000000000000000000000000400",
      "type": "0x2",
      "transactionHash": "0x1251bde8bf0bf7b3dec414cab759d4091a4f2682b22c37cc208358763ca9eb0d",
      "transactionIndex": "0x50",
      "blockHash": "0x740278e73e172af252af7aea8f54de90c56abda785e63baae58ab1d0c89cc621",
      "blockNumber": "0x9f974f",
      "gasUsed": "0xbaca",
      "effectiveGasPrice": "0xfa1e7",
      "from": "0x8822f2965090ddc102f7de354dfd6e642c090269",
      "to": "0x000000000022d473030f116ddee9f6b43ac78ba3",
      "contractAddress": null
    },
    {
      "status": "0x1",
      "cumulativeGasUsed": "0xc40869",
      "logs": [
        {
          "address": "0x429ba70129df741b2ca2a85bc3a2a3328e5c09b4",
          "topics": [
            "0xddf252ad1be2c89b69c2b068fc378daa952ba7f163c4a11628f55a4df523b3ef",
            "0x0000000000000000000000000000000000000000000000000000000000000000",
            "0x0000000000000000000000001804c8ab1f12e6bbf3894d4083f33e07309d1f38",
            "0x00000000000000000000000000000000000000000000000000000000000060e2"
          ],
          "data": "0x",
          "blockHash": "0x740278e73e172af252af7aea8f54de90c56abda785e63baae58ab1d0c89cc621",
          "blockNumber": "0x9f974f",
          "blockTimestamp": "0x69b84070",
          "transactionHash": "0x831c2c803ccc07fcfcf4546a0c1856d16f8bab589ba34a1dd516daeebee50140",
          "transactionIndex": "0x51",
          "logIndex": "0x9e",
          "removed": false
        },
        {
          "address": "0xe03a1074c86cfedd5c142c4f04f1a1536e203543",
          "topics": [
            "0xf208f4912782fd25c7f114ca3723a2d5dd6f3bcc3ac8db5af63baa85f711d5ec",
            "0x7f2f2e90c49e4b551f4bc40be14efd4c48db78543dddec8ade8d974051f724e7",
            "0x000000000000000000000000429ba70129df741b2ca2a85bc3a2a3328e5c09b4"
          ],
          "data": "0xfffffffffffffffffffffffffffffffffffffffffffffffffffffffffffffda800000000000000000000000000000000000000000000000000000000000002580000000000000000000000000000000000000000000000008ac7230489e8000000000000000000000000000000000000000000000000000000000000000060e2",
          "blockHash": "0x740278e73e172af252af7aea8f54de90c56abda785e63baae58ab1d0c89cc621",
          "blockNumber": "0x9f974f",
          "blockTimestamp": "0x69b84070",
          "transactionHash": "0x831c2c803ccc07fcfcf4546a0c1856d16f8bab589ba34a1dd516daeebee50140",
          "transactionIndex": "0x51",
          "logIndex": "0x9f",
          "removed": false
        },
        {
          "address": "0xaa0c5d4170b14dc765806b14d9a28e71622979ab",
          "topics": [
            "0xddf252ad1be2c89b69c2b068fc378daa952ba7f163c4a11628f55a4df523b3ef",
            "0x0000000000000000000000008822f2965090ddc102f7de354dfd6e642c090269",
            "0x000000000000000000000000e03a1074c86cfedd5c142c4f04f1a1536e203543"
          ],
          "data": "0x0000000000000000000000000000000000000000000000000419ef1172f137b1",
          "blockHash": "0x740278e73e172af252af7aea8f54de90c56abda785e63baae58ab1d0c89cc621",
          "blockNumber": "0x9f974f",
          "blockTimestamp": "0x69b84070",
          "transactionHash": "0x831c2c803ccc07fcfcf4546a0c1856d16f8bab589ba34a1dd516daeebee50140",
          "transactionIndex": "0x51",
          "logIndex": "0xa0",
          "removed": false
        },
        {
          "address": "0xe3fcc621df2c3e78382be425cc3998d55752265d",
          "topics": [
            "0xddf252ad1be2c89b69c2b068fc378daa952ba7f163c4a11628f55a4df523b3ef",
            "0x0000000000000000000000008822f2965090ddc102f7de354dfd6e642c090269",
            "0x000000000000000000000000e03a1074c86cfedd5c142c4f04f1a1536e203543"
          ],
          "data": "0x0000000000000000000000000000000000000000000000000419ef1172f137b1",
          "blockHash": "0x740278e73e172af252af7aea8f54de90c56abda785e63baae58ab1d0c89cc621",
          "blockNumber": "0x9f974f",
          "blockTimestamp": "0x69b84070",
          "transactionHash": "0x831c2c803ccc07fcfcf4546a0c1856d16f8bab589ba34a1dd516daeebee50140",
          "transactionIndex": "0x51",
          "logIndex": "0xa1",
          "removed": false
        }
      ],
      "logsBloom": "0x00200000000000000000001000000000000000000008000200000000080000000000000000000040080000000000000000000100000000000000000000000001000000000000000001000008000000000000400000000000000000000000000000000000020000000001000080000800000000000000100000000810000000000000008001000000000014000000000000000000000000000000040000000000000004000000000000000000000000040800000000400000000000000008000000000002000004000000000000000000000000000000000000001000000022001000004000000000000000000000000004000000000000002000800000000000",
      "type": "0x2",
      "transactionHash": "0x831c2c803ccc07fcfcf4546a0c1856d16f8bab589ba34a1dd516daeebee50140",
      "transactionIndex": "0x51",
      "blockHash": "0x740278e73e172af252af7aea8f54de90c56abda785e63baae58ab1d0c89cc621",
      "blockNumber": "0x9f974f",
      "gasUsed": "0x6a780",
      "effectiveGasPrice": "0xfa1e7",
      "from": "0x8822f2965090ddc102f7de354dfd6e642c090269",
      "to": "0x429ba70129df741b2ca2a85bc3a2a3328e5c09b4",
      "contractAddress": null
    },
    {
      "status": "0x1",
      "cumulativeGasUsed": "0xc4bef7",
      "logs": [
        {
          "address": "0xe3fcc621df2c3e78382be425cc3998d55752265d",
          "topics": [
            "0x8c5be1e5ebec7d5bd14f71427d1e84f3dd0314c0f7b2291e5b200ac8c7c3b925",
            "0x0000000000000000000000008822f2965090ddc102f7de354dfd6e642c090269",
            "0x000000000000000000000000b5d8ca1a1c0eb0af80a77020f78e4760b906d0c0"
          ],
          "data": "0x0000000000000000000000000000000000000000000000008ac7230489e80000",
          "blockHash": "0x740278e73e172af252af7aea8f54de90c56abda785e63baae58ab1d0c89cc621",
          "blockNumber": "0x9f974f",
          "blockTimestamp": "0x69b84070",
          "transactionHash": "0x09afe17f1e6249772912d5c37f37c2b0d999cc60b6b9bac93028fbd2e4f4726d",
          "transactionIndex": "0x52",
          "logIndex": "0xa2",
          "removed": false
        }
      ],
      "logsBloom": "0x00200000000000000000000000020000000000000000000200000000000000000000000000000000000000000000000000000000000000000000000000200000000000000000000001000000000000000000000000000000000000000000000000000000000000000000000000000000000000000000000000000000000000000000008000000000000000000000000000000000000000000000000000000000020000000000000000000000000000000800000000000000000000000000000000000000000000001000000000000000000000000000001000000000000000000010004000000000000000000000000000000000000000000000000000000000",
      "type": "0x2",
      "transactionHash": "0x09afe17f1e6249772912d5c37f37c2b0d999cc60b6b9bac93028fbd2e4f4726d",
      "transactionIndex": "0x52",
      "blockHash": "0x740278e73e172af252af7aea8f54de90c56abda785e63baae58ab1d0c89cc621",
      "blockNumber": "0x9f974f",
      "gasUsed": "0xb68e",
      "effectiveGasPrice": "0xfa1e7",
      "from": "0x8822f2965090ddc102f7de354dfd6e642c090269",
      "to": "0xe3fcc621df2c3e78382be425cc3998d55752265d",
      "contractAddress": null
    },
    {
      "status": "0x1",
      "cumulativeGasUsed": "0xc983c9",
      "logs": [
        {
          "address": "0xe3fcc621df2c3e78382be425cc3998d55752265d",
          "topics": [
            "0xddf252ad1be2c89b69c2b068fc378daa952ba7f163c4a11628f55a4df523b3ef",
            "0x0000000000000000000000008822f2965090ddc102f7de354dfd6e642c090269",
            "0x000000000000000000000000b5d8ca1a1c0eb0af80a77020f78e4760b906d0c0"
          ],
          "data": "0x0000000000000000000000000000000000000000000000008ac7230489e80000",
          "blockHash": "0x740278e73e172af252af7aea8f54de90c56abda785e63baae58ab1d0c89cc621",
          "blockNumber": "0x9f974f",
          "blockTimestamp": "0x69b84070",
          "transactionHash": "0xf97f0a6eaeb814482462fe58f7b3f5e8031249eb351ba94ec9fb53c368500f40",
          "transactionIndex": "0x53",
          "logIndex": "0xa3",
          "removed": false
        },
        {
          "address": "0xb5d8ca1a1c0eb0af80a77020f78e4760b906d0c0",
          "topics": [
            "0x8776ac1eebedf300fb512986bfbc3010750c9c74b63a53bd060c789c80f0f521",
            "0x0000000000000000000000008822f2965090ddc102f7de354dfd6e642c090269",
            "0x0000000000000000000000000000000000000000000000000000000000aa36a7"
          ],
          "data": "0x000000000000000000000000000000000000000000000000000000000000012300000000000000000000000000000000000000000000000010a741a4627800000000000000000000000000000000000000000000000000008ac7230489e80000",
          "blockHash": "0x740278e73e172af252af7aea8f54de90c56abda785e63baae58ab1d0c89cc621",
          "blockNumber": "0x9f974f",
          "blockTimestamp": "0x69b84070",
          "transactionHash": "0xf97f0a6eaeb814482462fe58f7b3f5e8031249eb351ba94ec9fb53c368500f40",
          "transactionIndex": "0x53",
          "logIndex": "0xa4",
          "removed": false
        },
        {
          "address": "0xb5d8ca1a1c0eb0af80a77020f78e4760b906d0c0",
          "topics": [
            "0x44cce8cc7a0253efc185826666b888c4c6d071aa7e3c8a61df699329ffb47289",
            "0x0000000000000000000000008822f2965090ddc102f7de354dfd6e642c090269",
            "0x0000000000000000000000000000000000000000000000000000000000aa36a7",
            "0x0000000000000000000000000000000000000000000000000000000000000123"
          ],
          "data": "0x00000000000000000000000000000000000000000000000010a741a462780000",
          "blockHash": "0x740278e73e172af252af7aea8f54de90c56abda785e63baae58ab1d0c89cc621",
          "blockNumber": "0x9f974f",
          "blockTimestamp": "0x69b84070",
          "transactionHash": "0xf97f0a6eaeb814482462fe58f7b3f5e8031249eb351ba94ec9fb53c368500f40",
          "transactionIndex": "0x53",
          "logIndex": "0xa5",
          "removed": false
        }
      ],
      "logsBloom": "0x00200000000000000000000000020000000000000000000210000000000000080000000000000040040000000000000002000000000000000800000000000000000000020000000001000008000000000000000000000000000000000000000000000000000000000000000000000000000000000000000000000010000000000000008000000000000000000000000000000000200000000000000080000000000000000000080000000000000000000800000000000000000000000200000000000002000000001000040000000000100000000000001000000100000000000000004000000000000000000000000000000000000200000000000000000000",
      "type": "0x2",
      "transactionHash": "0xf97f0a6eaeb814482462fe58f7b3f5e8031249eb351ba94ec9fb53c368500f40",
      "transactionIndex": "0x53",
      "blockHash": "0x740278e73e172af252af7aea8f54de90c56abda785e63baae58ab1d0c89cc621",
      "blockNumber": "0x9f974f",
      "gasUsed": "0x4c4d2",
      "effectiveGasPrice": "0xfa1e7",
      "from": "0x8822f2965090ddc102f7de354dfd6e642c090269",
      "to": "0xb5d8ca1a1c0eb0af80a77020f78e4760b906d0c0",
      "contractAddress": null
    }
  ],
  "libraries": [],
  "pending": [],
  "returns": {},
  "timestamp": 1773682803028,
  "chain": 11155111,
  "commit": "74f0a6e"
}